{
  "contractName": "Contract",
  "abi": [
    {
      "anonymous": false,
      "inputs": [
        {
          "indexed": true,
          "name": "from",
          "type": "address"
        }
      ],
      "name": "NewEvent",
      "type": "event",
      "signature": "0x0227e3b2fb10ea87b3ce0fe9b23554ad992c666dd128c13c0a6ef2d73dd80ba0"
    },
    {
      "constant": false,
      "inputs": [],
      "name": "trigger",
      "outputs": [],
      "payable": false,
      "stateMutability": "nonpayable",
      "type": "function",
      "signature": "0x7fec8d38"
    }
  ],
  "bytecode": "0x6080604052348015600f57600080fd5b5060c98061001e6000396000f3fe608060405260043610603f576000357c0100000000000000000000000000000000000000000000000000000000900463ffffffff1680637fec8d38146044575b600080fd5b348015604f57600080fd5b5060566058565b005b3373ffffffffffffffffffffffffffffffffffffffff167f0227e3b2fb10ea87b3ce0fe9b23554ad992c666dd128c13c0a6ef2d73dd80ba060405160405180910390a256fea165627a7a723058204a24788d847da9f7a62cf2006859df38e473991bb10470717d8462121525c3010029",
  "source": "pragma solidity ^0.5.0;\r\n\r\ncontract Contract {\r\n    event NewEvent(\r\n        address indexed from\r\n    );\r\n\r\n    function trigger() public {\r\n        emit NewEvent(msg.sender);\r\n    }\r\n}",
  "sourcePath": "D:/DApps/Major Project/src/contracts/Contract.sol",
  "compiler": {
    "name": "solc",
    "version": "0.5.0+commit.1d4f565a.Emscripten.clang"
  },
  "schemaVersion": "3.0.2",
  "updatedAt": "2020-04-05T11:41:23.139Z",
  "devdoc": {
    "methods": {}
  },
  "userdoc": {
    "methods": {}
  }
}